:100000000C9408060C944C060C944C060C944C066C
:100010000C944C060C944C060C944C060C944C0618
:100020000C944C060C944C060C944A0D0C941A0E2D
:100030000C94C11F0C944C060C944C060C944C066A
:100040000C944C060C941E260C944C060C944C06F6
:100050000C944C060C94E01F0C944C060C944C062B
:100060000C944C060C944C060C944C060C944C06C8
:100070000C944C060C944C060C944C060C944C06B8
:100080000C944C060C944C060C944C060C944C06A8
:100090000C944C060C944C060C944C060C944C0698
:1000A0000C944C060C944C060C944C06820FA40F36
:1000B0009010A40F9010E60F0A1090105F107210AD
:1000C0008B138B13B913B9130E1497169716971633
:1000D0004A14971641154115FD15111697168516E8
:1000E0001F244D244A2236253625D423362536258D
:1000F000792436258C2401253625362536253625C6
:10010000D624BD243625A624362566243625362554
:100110003025302530253025302530253025302537
:1001200030252E2536252E2536253625362536250D
:1001300036253625362536253625362536252E25EF
:1001400036253625D423B7233225322532253225CC
:1001500032253225322532253225322532253225E7
:10016000132536253924016202620162026200F120
:10017000A100D100D200D0291E1F20212223242536
:1001800026272D2E2A2B141A0815171C180C1213AB
:100190002F303139041607090A0B0D0E0F333400C6
:1001A00028E1001D1B0619051110363738C0E5E09F
:1001B000E3E200002C00000000E6C0E7E4353A3B33
:1001C0003C3D3E3F4041424344454C010152010108
:1001D00001B2014901464748010150514F01010157
:1001E0000101014A4B000101000165C1C2C3AAA976
:1001F000A84D4E01010101010000010000000001B5
:100200000101010A002530313662003A2000253014
:100210003258000A722F632030313233343536378A
:1002200038394142434445460A000A0025303258D5
:1002300000626F756E6365213A2000001080FF0137
:100240002300204B6579626F617264207374617260
:10025000742E0A0055534220636F6E66696775728B
:1002600065642E0A000C0341006D006A0036003000
:1002700000000012036700650065006B0068006104
:100280000063006B00000004030904090274000409
:100290000100A0320904000001030101000921113D
:1002A000010001223F000705810308000A0904013B
:1002B000000103000000092111010001223600079E
:1002C00005820308000A0904020002030000000975
:1002D00021110100012220000705830320000107EE
:1002E00005030320000109040300010300000009C5
:1002F00021110100012239000705840310000112B9
:1003000001100100000008EDFE666001000102001E
:100310000105010906A101050719E029E7150025D6
:1003200001950875018102050819012905950575D2
:1003300001910295017503910105071900297715AF
:10034000002501957875018102C00631FF0974A16D
:10035000010975150025FF9520750881020976159C
:100360000025FF952075089102C005010980A101B3
:10037000850216010026B7001A01002AB700751081
:1003800095018100C0050C0901A10185031601003A
:10039000269C021A01002A9C02751095018100C05A
:1003A00005010906A101050719E029E71500250146
:1003B00095087501810295017508810105081901EB
:1003C00029059505750191029501750391010507B0
:1003D000190029FF150025FF950675088100C00A40
:1003E000002530325820006B6579626F6172645F5E
:1003F0007265706F72743A20000A0025303258001E
:100400006B6579626F6172645F7365745F6C65645C
:100410003A200064656C5F6B65795F6269743A20AD
:1004200063616E27742064656C3A20253032580A67
:10043000006164645F6B65795F6269743A2063612F
:100440006E2774206164643A20253032580A0064B3
:100450006F6E652E0A00626F6F676D61676963205A
:100460007363616E3A202E2E2E20003F000A5175D4
:10047000697420436F6E736F6C65204D6F64650AFD
:1004800000433E20000A0025750020746F200025DF
:1004900075007377697463685F64656661756C7411
:1004A0005F6C617965723A20004553432F713A09B8
:1004B000717569740A000A0A2D2D2D2D2D20436FA8
:1004C0006E736F6C652048656C70202D2D2D2D2D61
:1004D0000A00506175733A096A756D7020746F2057
:1004E000626F6F746C6F616465720A004361707350
:1004F0003A094C6F636B204B6579626F61726428B7
:100500004368696C642050726F6F66290A0050530B
:1005100063723A09706F77657220646F776E2F721D
:10052000656D6F74652077616B652D75700A003499
:100530002F46343A0973776974636820746F204CCE
:100540006179657234200A00332F46333A09737794
:100550006974636820746F204C6179657233200A76
:1005600000322F46323A0973776974636820746FDA
:10057000204C6179657232200A00312F46313A09E8
:1005800073776974636820746F204C617965723188
:10059000200A00302F4631303A0973776974636856
:1005A00020746F204C6179657230200A006E3A0920
:1005B000746F67676C65204E4B524F0A00653A09AD
:1005C0007072696E7420656570726F6D20636F6EF6
:1005D0006669670A00733A097072696E74207374F1
:1005E000617475730A00743A097072696E742074CC
:1005F000696D657220636F756E740A00763A0970D2
:1006000072696E74206465766963652076657273BD
:10061000696F6E202620696E666F0A006D3A097454
:100620006F67676C65206D6F7573652064656275B3
:10063000670A006B3A09746F67676C65206B6579B0
:10064000626F6172642064656275670A00783A09B6
:10065000746F67676C65206D61747269782064657A
:100660006275670A00643A09746F67676C65206495
:100670006562756720656E61626C650A00633A09A0
:10068000656E74657220636F6E736F6C65206D6F3D
:1006900064650A000A0A2D2D2D2D2D20436F6D6DE6
:1006A000616E642048656C70202D2D2D2D2D0A0063
:1006B0000A002575002E6C6576656C3A20000A00EC
:1006C0002575002E656E61626C653A20000A002572
:1006D000303258006261636B6C696768745F636F86
:1006E0006E6669672E7261773A20000A00257500F0
:1006F0002E6E6B726F3A20000A002575002E7377FC
:1007000061705F6261636B736C6173685F62616388
:100710006B73706163653A20000A002575002E73C3
:100720007761705F67726176655F6573633A200019
:100730000A002575002E6E6F5F6775693A20000A02
:10074000002575002E737761705F72616C745F7243
:100750006775693A20000A002575002E737761706D
:100760005F6C616C745F6C6775693A20000A0025E4
:1007700075002E636170736C6F636B5F746F5F6382
:100780006F6E74726F6C3A20000A002575002E732C
:100790007761705F636F6E74726F6C5F63617073AB
:1007A0006C6F636B3A20000A0025303258006B658D
:1007B000796D61705F636F6E6669672E7261773AFB
:1007C00020000A002575002E6D6F7573653A2000B4
:1007D0000A002575002E6B6579626F6172643A209C
:1007E000000A002575002E6D61747269783A200048
:1007F0000A002575002E656E61626C653A20000A5C
:1008000000253032580064656275675F636F6E66FD
:1008100069672E7261773A20000A002575006465C9
:100820006661756C745F6C617965723A20003F0097
:100830004E4B524F3A2064697361626C65640A00E2
:100840004E4B524F3A20656E61626C65640A006BD4
:100850006579626F6172645F69646C653A202558DE
:100860000A006B6579626F6172645F70726F746F9A
:10087000636F6C3A2025580A00686F73745F6B656C
:1008800079626F6172645F6C65647328293A202510
:10089000580A000A0A2D2D2D2D2D205374617475D0
:1008A00073202D2D2D2D2D0A0074696D65725F63E7
:1008B0006F756E743A202530346C580A00474343F4
:1008C0003A20342E382E33204156522D4C49424383
:1008D0003A20312E382E30204156525F4152434843
:1008E0003A20617672350A004F5054494F4E533AC0
:1008F000204C55464120424F4F544D4147494320DB
:1009000045585452414B455920434F4E534F4C4547
:1009100020434F4D4D414E44204E4B524F20364BBD
:10092000524F204B45594D41505F494E5F45455010
:10093000524F4D204C45444D4150204C45444D4173
:10094000505F494E5F454550524F4D204241434B09
:100950004C4947485420534F465450574D5F4C45DF
:100960004420425245415448494E475F4C4544203B
:10097000343039360A004255494C443A203637372C
:1009800039663334202832303A35353A323820440B
:1009900065632031362032303134290A005649440B
:1009A0003A20307846454544286765656B68616341
:1009B0006B29205049443A20307836303636284169
:1009C0006D6A363029205645523A20307830303022
:1009D000310A00444553433A20742E6D2E6B2E206D
:1009E0006B6579626F617264206669726D7761729E
:1009F0006520666F7220416D6A36300A000A0A2D42
:100A00002D2D2D2D2056657273696F6E202D2D2D85
:100A10002D2D0A000A44454255473A206D6F7573E3
:100A2000652064697361626C65642E0A000A44453E
:100A30004255473A206D6F75736520656E61626C33
:100A400065642E0A000A44454255473A206B657991
:100A5000626F6172642064697361626C65642E0AFE
:100A6000000A44454255473A206B6579626F6172CE
:100A70006420656E61626C65642E0A000A4445421A
:100A800055473A206D6174726978206469736162B8
:100A90006C65642E0A000A44454255473A206D6150
:100AA0007472697820656E61626C65642E0A000A52
:100AB00044454255473A20656E61626C65642E0A72
:100AC000000A44454255473A2064697361626C6587
:100AD000642E0A006E6F7420737570706F72746587
:100AE000642E0A000A0A4A756D7020746F20626FC6
:100AF0006F746C6F616465722E2E2E2000433E2051
:100B0000000A456E74657220436F6E736F6C6520CA
:100B10004D6F64650A00556E6C6F636B65642E0AD9
:100B2000004C6F636B65642E0A006565636F6E66CB
:100B300069673A0A000000000000000000000001A0
:100B40000101020202030304040505060607080862
:100B5000090A0B0B0C0D0E0F101112131516171995
:100B60001A1B1D1E2022232527292B2D2F3133351B
:100B7000383A3D3F4244474A4D505356595C5F62B4
:100B800066696C7074777B7E82868A8E9195999D5A
:100B9000A1A5A9ADB0B4B8BCC0C3C7CBCED2D5D87F
:100BA000DBDFE2E4E7EAECEFF1F3F5F7F8FAFBFC60
:100BB000FDFEFFFFFF6261636B6C69676874207301
:100BC0007465703A2025750A006261636B6C696711
:100BD000687420746F67676C653A2025750A006237
:100BE00061636B6C696768742064656372656173C7
:100BF000653A2025750A006261636B6C69676874E9
:100C000020696E6372656173653A2025750A00007C
:100C100011241FBECFEFDAE0DEBFCDBF04B603FE66
:100C200024C08091E8019091E901A091EA01B0917E
:100C3000EB018730904BA740B04BB9F41092E8011C
:100C40001092E9011092EA011092EB0114BE84B7F0
:100C5000877F84BF88E10FB6F8948093600010927C
:100C600060000FBEE0E0F8E3099511E0A0E0B1E01C
:100C7000EAEFF5E502C005900D92A432B107D9F76D
:100C800011E0A4E2B1E001C01D92A83EB107E1F776
:100C90000E94960B0C94FB2A0C940000FF93EF9398
:100CA000E091B501F091B601309709F00995EF9107
:100CB000FF910895FC018591803011F0EFDFFBCFAB
:100CC0000895FF27E0E230E247FF0CC0419597FF0F
:100CD00009C0EDE26095709580959095611D711D3C
:100CE000811D911D27FF02C0219530E350E2AA2704
:100CF000660F771F881F991FAA1FA41710F0A41B47
:100D000063955A95A9F7AA3008F0A95FA05DAF9343
:100D1000F395611571058105910541F7ED3211F4E7
:100D2000EF93F395F21718F43F93F395FBCF8F9160
:100D3000B5DFFA95E1F70895E991F9918591803051
:100D400021F0853219F0AADFF9CF089520E0E89468
:100D500055915532C1F3503311F4689455915A337B
:100D600048F4505390F3220F022E220F220F200D31
:100D7000250FF4CF0EF4219589919991533619F3EB
:100D8000533729F1533559F1BC0188279927E89445
:100D90005C3621F48991999168945591543639F4CF
:100DA00046EF7EF077FF0DC08FEF9FEF0AC05537FB
:100DB0004AE039F0583540E121F0523642E009F07E
:100DC0000895FF93EF937DDFEF91FF91B7CFFF93EE
:100DD000EF93FC0181918030B9F360DFFBCFFF938B
:100DE000EF9368DFF1CFDF93CF93CDB7DEB72596D2
:100DF000A3DFCF91DF910895089508958CE890E0E6
:100E0000089584E090E00895611107C0FC0182819B
:100E1000882319F086E691E0089580E090E0089537
:100E2000611118C0FC018281882371F00E948E1D1F
:100E3000827211F085E301C089E2809324018091E0
:100E400024010E941F1204C0809124010E94E71215
:100E50000C94BF1D0895462F672F0C94EC29805CDD
:100E60000E94E029089587E791E008958FE691E0D8
:100E7000089555985D9880B38F7080BB81B38F7053
:100E800081BB089585E008958EE0089580E885BFD0
:100E900085BF0E94390780B38C7F80BB81B383609C
:100EA00081BB6E98769A8AB18F728AB98BB1806D48
:100EB0008BB987B18F7387B988B1806C88B984B1D9
:100EC000847484B985B18B6B85B9EFE2F1E0A5E25A
:100ED000B1E0119211921D921D9281E0E933F80761
:100EE000C1F70895AF92BF92CF92EF92FF920F9306
:100EF0001F93CF93DF93C5E2D1E010E001E0A5E0BE
:100F0000CA2EBCE2EB2EB2E0FB2E123071F018F4C8
:100F1000113041F004C0133059F0143061F0879A59
:100F20008F980BC0869A8E9808C0859A8D9805C0B8
:100F3000849A8C9802C0559A5D9880EA8A95F1F758
:100F40008FB18695802780FBAA24A0F8B12C789BCE
:100F500003C020E030E002C022E030E02A293B2933
:100F6000669B03C080E090E002C084E090E0282B04
:100F7000392B86B1992787FD909580959095882784
:100F8000990F881F9927F3E0880F991FFA95E1F7C9
:100F9000282B392B369B03C040E050E002C040E1D3
:100FA00050E0242B352B189B03C040E050E002C0DA
:100FB00040E250E0242B352B4C9B03C080E090E0B6
:100FC00002C080E490E0282B392B199B03C080E0FD
:100FD00090E002C080E890E0282B392B83B199275C
:100FE00087FD9095809590958827990F881F992760
:100FF000982F8827282B392B1D9B03C080E090E079
:1010000002C080E092E0282B392B1C9B03C080E0BB
:1010100090E002C080E094E0282B392B89B1992719
:1010200087FD9095809590958827990F881F99271F
:10103000982F8827990F990F990F282B392B4E9BA2
:1010400003C080E090E002C080E090E1282B392BC3
:101050001B9B03C080E090E002C080E090E2282B60
:10106000392B888199818217930741F1398328832D
:1010700080910001882301F18091B40180FF04C0B8
:1010800081E392E00E945A068091B40180FF0CC077
:10109000809100011F928F93FF92EF920E94F306BE
:1010A0000F900F900F900F908091B40180FF04C0BB
:1010B0008AE292E00E945A06C09200010E9439071B
:1010C0001F5F2296153009F020CF80910001882300
:1010D000C1F0815080930001882339F08FE99FE0AF
:1010E0000197F1F700C000000CC0AFE2B1E0E5E20B
:1010F000F1E0819191918D939D9391E0EF32F90709
:10110000C1F781E0DF91CF911F910F91FF90EF9098
:10111000CF90BF90AF900895E82FF0E0EE0FFF1F43
:10112000E15DFE4F808191810895CF92DF92EF9231
:10113000FF920F931F93CF93DF9383E192E00E947E
:101140005A068FE2E82E81E0F82EC0E0D0E09EE063
:10115000C92E92E0D92E05E012E0DF93CF93DF9203
:10116000CF920E94F3068BE092E00E945A06F701AC
:10117000819191917F010E94641F9F938F931F9390
:101180000F930E94F30683E092E00E945A06219694
:101190008DB79EB708960FB6F8949EBF0FBE8DBF51
:1011A000C530D105D1F6DF91CF911F910F91FF90FE
:1011B000EF90DF90CF900895CF93C82F809339019F
:1011C0008730C0F4843010F58130C0F10E94A92529
:1011D0000E9409260E941826EC2FF0E0E55CFD4FE6
:1011E000C4916C2F80E00E94C4256C2F81E0CF91C8
:1011F0000C94C4258730A9F0883001F50E94A925F8
:101200000E9403260E94182681E012C00E94A92590
:101210000E9412260E94092686E08C1BCF910C9416
:101220001B260E94A9250E9403260E94182680E002
:101230000E940C2683E0CF910C940F260E94092671
:101240000E941826CF910C94B3251F93CF93DF9360
:1012500000D000D01F92CDB7DEB7162F8091390194
:10126000873029F4662319F080E20E94F5258091E9
:101270003901883069F4112359F080E20F900F9002
:101280000F900F900F90DF91CF911F910C94DE255E
:101290000F900F900F900F900F90DF91CF911F91B3
:1012A0000895E82FF0E0EE0FFF1FE15CFD4F859100
:1012B00094910895229A2A9A269A2E98089588231E
:1012C00019F0813019F008952A9808952E9A0895FA
:1012D000882319F0813019F008952A9A08952E98DC
:1012E000089580914C01089508959091DE01943005
:1012F00009F05AC09091E9009F702091EC0020FF06
:1013000002C020E801C020E0922B23E02093E900F6
:101310002091EB0020FF29C02091EE0027FF25C07F
:1013200020913B01222321F02091E80025FF1DC0E0
:1013300010923B012091E4003091E50066E007C087
:101340004091E4005091E5002417350791F4409155
:10135000E80045FD19C04091DE01442329F14530E4
:1013600019F14091EB0045FFEBCF9F709093E9009E
:101370001BC0615021F481E080933B01F6CF2091A6
:10138000E4003091E500E3CF8093F1008091E80024
:1013900085FD05C08091E8008E778093E8009F70FE
:1013A0009093E90080E008958FEF0895CF93DF9345
:1013B00000D01F92CDB7DEB72091DE01243021F599
:1013C00023E029839B838A8382E08093E9008FEF67
:1013D0009091E800815095FD06C095ED9A95F1F742
:1013E00000008111F5CF8091E80085FF0DC040E03D
:1013F00050E063E070E0CE0101960E94560E8091AD
:10140000E8008E778093E8000F900F900F90DF91A7
:10141000CF910895CF93DF9300D01F92CDB7DEB761
:101420002091DE01243019F522E029839B838A83F1
:101430002093E9008FEF9091E800815095FD06C060
:1014400095ED9A95F1F700008111F5CF8091E800B4
:1014500085FF0DC040E050E063E070E0CE010196F2
:101460000E94560E8091E8008E778093E8000F90DE
:101470000F900F90DF91CF910895CF93DF93EC0100
:101480008091DE01843009F042C090910C019923D3
:10149000B9F08093E9008FEF9091E800815095FDBD
:1014A00006C095E19A95F1F700008111F5CF809182
:1014B000E80085FF2CC040E050E060E170E017C01C
:1014C00081E08093E9008FEF9091E800815095FDD5
:1014D00006C095ED9A95F1F700008111F5CF809146
:1014E000E80085FF14C040E050E068E070E0CE0105
:1014F0000E94560E8091E8008E778093E80080E18C
:10150000FE01ACE3B1E001900D928A95E1F7DF9125
:10151000CF9108958091DD01811107C00E94310DA6
:101520008091E20084608093E20008950895089518
:1015300008950C94BD1F8091DE01843049F580919F
:10154000E9008F709091EC0090FF02C090E801C01C
:1015500090E0982B83E08093E9008091EB0080FF7E
:1015600014C08091EE0087FF10C08091E80085FFD5
:1015700003C01092F100F9CF8091E80080FF05C010
:101580008091E8008E778093E8009F709093E90047
:10159000089542E061EC81E00E944E0C42E061EC73
:1015A00082E00E944E0C46E261EC83E00E944E0C09
:1015B00042E161EC84E00C944E0C8091E0018330B8
:1015C00009F455C030F4813071F0823009F495C0CF
:1015D00008958A3009F481C08B3009F460C08930E5
:1015E00009F0A3C020C08091DF01813A09F09DC0BD
:1015F0008091E800877F8093E8008091E3019091DB
:10160000E401892B21F060E080E090E003C060E11C
:101610008CE391E070E00E949F0E8091E8008B7750
:101620008093E80008958091DF01813209F07DC048
:101630008091E3019091E401009719F0039709F07C
:1016400074C08091E800877F8093E8008091E80073
:1016500082FD05C08091DE018111F8CF66C08091C6
:10166000F10080934C018091E8008B775AC0809103
:10167000DF01813A09F059C08091E3019091E401C2
:10168000892B09F052C08091E800877F8093E800A1
:101690008091E80080FFFCCF80910B013DC08091DC
:1016A000DF01813209F041C08091E3019091E401B2
:1016B000892BD9F58091E800877F8093E8000E940C
:1016C000830C9091E10181E0911101C080E0809351
:1016D0000B0180930C010C94B4168091DF018132D0
:1016E00021F58091E800877F8093E8000E94830CB9
:1016F0008091E20180933A0108958091DF01813A5F
:10170000A1F48091E800877F8093E8008091E80051
:1017100080FFFCCF80913A018093F1008091E80036
:101720008E778093E8000C94830C089584B7877FAC
:1017300084BF88E10FB6F894809360001092600037
:101740000FBE90E080E80FB6F8948093610090930C
:1017500061000FBE0E94D40C0E94310D8091E20006
:1017600084608093E20085E799E00E94FA1E7894F5
:101770008091DE018430E1F784E592E00E945A0610
:101780000E94301181E091E00E94A91083E492E070
:101790000E945A068091DE01853071F483E00E9438
:1017A0007E1F8091DC018823A9F30E94A81F882353
:1017B00089F30E94380CEECF0E946811EBCF292FDD
:1017C000332723303105A9F06CF42130310509F4B9
:1017D00042C02230310509F043C084E790E02BE895
:1017E00032E042C021323105C9F02232310519F10F
:1017F00037C099278130910541F08230910541F041
:10180000892B71F5E7E8F2E005C0E3E7F2E002C0FA
:10181000E5E6F2E0849190E09F0126C0643000F597
:10182000E62FF0E0EE0FFF1FE55EFE4F20813181D5
:1018300089E090E019C0643098F4E62FF0E0DF0111
:10184000AA0FBB1FAD5EBE4F2D913C91E15FFE4FD5
:10185000808190E009C082E190E02FEF32E004C087
:1018600080E090E020E030E0FA01318320830895A9
:1018700080E189BD82E189BD09B400FEFDCF809180
:10188000D8008F7D8093D8008091E00082608093A3
:10189000E0008091E00081FDFCCF0895982F973003
:1018A00058F59093E900981739F07091EC00209169
:1018B000ED005091F00003C0242F762F50E021FF5F
:1018C00019C03091EB003E7F3093EB003091ED007A
:1018D0003D7F3093ED003091EB0031603093EB00B1
:1018E0007093EC002093ED005093F0002091EE00F7
:1018F00027FF07C09F5FD3CF8F708093E90081E0FF
:10190000089580E008958091DF0187FD05C08091F2
:10191000E80080FF0EC012C08091E80082FD05C083
:101920008091DE018111F8CF08958091E8008B77D6
:1019300008C08091DE018111EACF08958091E8000E
:101940008E778093E80008958091E4009091E500FF
:1019500045E62091EC0020FF21C02091E80020FD09
:1019600021C02091DE01222389F0253089F02091C9
:10197000EB0025FD0FC02091E4003091E500281711
:10198000390739F3415041F0C901E3CF82E00895AE
:1019900083E0089581E0089584E008952091E800AF
:1019A00022FFDFCF80E008950E943D0D0E94450D8B
:1019B000E0EEF0E0808181608083E8EDF0E08081FE
:1019C0008F77808319BCA7EDB0E08C918E7F8C93CC
:1019D00080818F7E80831092DD0108950F931F9385
:1019E000CF93DF930E943D0D0E94450DC8EDD0E0DE
:1019F00088818F77888388818068888388818F7DBC
:101A0000888319BC1092DE011092DA011092DC0179
:101A10001092DB0100EE10E0F80180818B7F808363
:101A200088818160888342E060E080E00E944E0C03
:101A3000E1EEF0E080818E7F8083E2EEF0E0808155
:101A400081608083808188608083F80180818E7FBF
:101A50008083888180618883DF91CF911F910F916E
:101A60000895E7EDF0E080818160808384E082BFAB
:101A700081E08093DD010C94EE0CE8EDF0E08081D4
:101A80008E7F80831092E20008951092DA00109207
:101A9000E10008951F920F920FB60F9211242F9319
:101AA0003F934F935F936F937F938F939F93AF93E6
:101AB000BF93EF93FF938091E10082FF0BC0809171
:101AC000E20082FF07C08091E1008B7F8093E100FC
:101AD0000E949B0A8091DA0080FF1FC08091D8008D
:101AE00080FF1BC08091DA008E7F8093DA008091A6
:101AF000D90080FF0DC080E189BD82E189BD09B4B4
:101B000000FEFDCF81E08093DE010E948A0A05C0BD
:101B100019BC1092DE010E94960A8091E10080FFBC
:101B200019C08091E20080FF15C08091E2008E7F95
:101B30008093E2008091E20080618093E2008091D6
:101B4000D80080628093D80019BC85E08093DE01C4
:101B50000E94980A8091E10084FF2EC08091E200EB
:101B600084FF2AC080E189BD82E189BD09B400FEFD
:101B7000FDCF8091D8008F7D8093D8008091E100C7
:101B80008F7E8093E1008091E2008F7E8093E2005F
:101B90008091E20081608093E2008091DA018111FE
:101BA00004C08091E30087FF02C084E001C081E0AF
:101BB0008093DE010E94990A8091E10083FF29C091
:101BC0008091E20083FF25C08091E100877F8093B0
:101BD000E10082E08093DE011092DA018091E10061
:101BE0008E7F8093E1008091E2008E7F8093E200FF
:101BF0008091E20080618093E20042E060E080E05A
:101C00000E944E0C8091F00088608093F0000E944A
:101C1000970AFF91EF91BF91AF919F918F917F9123
:101C20006F915F914F913F912F910F900FBE0F9049
:101C30001F9018951F920F920FB60F9211242F9399
:101C40003F934F935F936F937F938F939F93AF9344
:101C5000BF93CF93EF93FF93C091E900CF70809132
:101C6000EC001092E9008091F000877F8093F000F3
:101C700078940E94580F1092E9008091F0008860DB
:101C80008093F000C093E900FF91EF91CF91BF9155
:101C9000AF919F918F917F916F915F914F913F9104
:101CA0002F910F900FBE0F901F901895CF92DF923B
:101CB000EF92FF920F931F93CF93DF937C018B01E1
:101CC000EA010E94A40C811131C0209731F0888173
:101CD0009981081B190BE80EF91EC12CD12C011596
:101CE000110519F18091E80085FD14C08091E8008C
:101CF0008E778093E800209741F0888199818C0D40
:101D00009D1D9983888385E011C00E94A40C8823BF
:101D100031F30CC0F70181917F018093F1000150F4
:101D20001109FFEFCF1ADF0ADACF80E0DF91CF9100
:101D30001F910F91FF90EF90DF90CF900895209129
:101D4000E5013091E6012617370748F06115710566
:101D500039F42091E8002E772093E80001C0B90102
:101D6000FC0120E061157105A9F18091DE01882355
:101D7000E9F18530E9F18091E80083FD35C080917B
:101D8000E80082FF06C08091E80082FF26C080E064
:101D900008958091E80080FFE5CF2091F3008091C5
:101DA000F20090E0922B6115710551F08830910599
:101DB00038F421912093F100615071090196F3CF1D
:101DC00021E0089709F020E08091E8008E77809369
:101DD000E800C8CF2111C9CFD6CF8091DE0188237A
:101DE00029F0853081F604C081E0089582E00895ED
:101DF00083E008952091E5013091E6012617370729
:101E000048F06115710539F42091E8002E77209390
:101E1000E80001C0B901FC0120E061157105C1F1C4
:101E20008091DE01882309F43FC0853009F43EC06B
:101E30008091E80083FD36C08091E80082FF06C0F3
:101E40008091E80082FF27C080E008958091E8003B
:101E500080FFE3CF2091F3008091F20090E0922B7D
:101E60006115710559F08830910540F42491209353
:101E7000F1003196615071090196F2CF21E0089787
:101E800009F020E08091E8008E778093E800C5CFCC
:101E90002111C6CFD5CF8091DE01882329F085306E
:101EA00079F604C081E0089582E0089583E0089502
:101EB0000F931F93CF93DF93CDB7DEB7AA970FB6DB
:101EC000F894DEBF0FBECDBFEFEDF1E08091F100E1
:101ED000819321E0E73EF207C9F70E94DD0A809175
:101EE000E80083FF1DC12091DF013091E001832FC5
:101EF00090E08A30910508F013C1FC01EA5AFF4FC7
:101F00000C94B02A203881F0223809F009C1809160
:101F1000E3018F708093E9008091EB0085FB8827B7
:101F200080F91092E90006C08091DB019091DC01FC
:101F3000911182609091E800977F9093E8008093E0
:101F4000F1001092F100C6C0822F8D7F09F0E8C029
:101F5000222319F0223061F0E3C08091E101813049
:101F600009F0DEC0333009F080E08093DC0128C046
:101F70008091E101811124C02091E3012F7009F4C7
:101F8000CFC02093E9008091EB0080FF19C08091C1
:101F9000EB00333011F4806211C080618093EB005C
:101FA00081E090E0022E01C0880F0A94EAF7809346
:101FB000EA001092EA008091EB0088608093EB00C9
:101FC0001092E9008091E800877F87C02111A8C0A6
:101FD0001091E1011F770FB7F8948091E800877F97
:101FE0008093E8000E94830C8091E80080FFFCCF82
:101FF0008091E3008078812B8093E3008068809358
:10200000E300112311F083E001C082E08093DE0140
:102010000FBF86C02058223008F082C08091E101B5
:102020009091E2018C3D23E0920779F583E08A8369
:102030008AE289834FB7F894DE01139620E03EE0F0
:1020400051E2E32FF0E050935700E49120FF03C0EA
:10205000E295EF703F5FEF708E2F90E0EA3010F066
:10206000C79601C0C0968D939D932F5F243149F789
:102070004FBF8091E800877F8093E8006AE270E0BC
:10208000CE0101960E949F0E14C0AE014F5F5F4FBC
:102090006091E3010E94DF0B009709F441C0209199
:1020A000E800277F2093E800BC0189819A810E9483
:1020B000FA0E8091E8008B778093E80031C02038D9
:1020C00079F58091E800877F8093E8008091DA01BC
:1020D0008093F1008091E8008E778093E8000E9461
:1020E000830C1EC021111CC09091E1019230C0F4FC
:1020F0008091E800877F8093E8009093DA010E9446
:10210000830C8091DA01811104C08091E30087FF84
:1021100002C084E001C081E08093DE010E94C90A10
:102120008091E80083FF0AC08091EB008062809379
:10213000EB008091E800877F8093E800AA960FB6B5
:10214000F894DEBF0FBECDBFDF91CF911F910F91ED
:102150000895909352018093510108958091510107
:10216000909152010895E0915101F0915201309700
:1021700021F00190F081E02D099480E00895FF9214
:102180000F931F93CF93DF938C01E0915101F09156
:102190005201309799F10280F381E02D09958091E9
:1021A000B40182FF2BC080FF04C087EE93E00E9441
:1021B0005A06E80180E1F82E01EE13E08091B401A7
:1021C00080FF0BC088811F928F931F930F930E94F3
:1021D000F3060F900F900F900F90FA942196F11044
:1021E000EDCF8091B40180FF09C08FED93E0DF91C6
:1021F000CF911F910F91FF900C945A06DF91CF91D0
:102200001F910F91FF90089520914F01309150013F
:102210008217930771F09093500180934F01E091E2
:102220005101F0915201309721F00680F781E02DA5
:102230000994089520914D0130914E018217930722
:1022400071F090934E0180934D01E0915101F09116
:102250005201309721F00084F185E02D0994089512
:102260000E94CB1F0E9446070E946F200E945C299B
:102270000E9419280E9496250E94E0260C94952A17
:10228000CF93C82F8091B40182FF1EC080FF04C08D
:1022900080E094E00E945A068091B40180FF0CC057
:1022A0001F92CF932BEF33E03F932F930E94F306BF
:1022B0000F900F900F900F908091B40180FF04C099
:1022C00089EF93E00E945A068C2FCF910C947B28C3
:1022D0005F926F927F928F929F92AF92BF92CF92B6
:1022E000DF92EF92FF920F931F93CF93DF93CDB7BF
:1022F000DEB72A970FB6F894DEBF0FBECDBF0E949F
:10230000720794E5C92E91E0D92E00E010E0AA24CE
:10231000A394B12C502E802F0E948C083C01F60112
:10232000E190F1906F01E826F926E114F104B1F48F
:102330000F5F1F4F0530110569F78FEF89838A837F
:102340001B820E94D41F8160782F9D838C834981DA
:102350005A816B818D810E94F8163AC08091B40138
:1023600081FD0E94950820E030E04501022E02C068
:10237000880C991C0A94E2F7C4018E219F21892BB5
:1023800009F12E835F826820792081E0672809F4B3
:1023900080E088870E94D41F8160782F9A87898780
:1023A0004E815F8168858A850E94F816F801EE0FDC
:1023B000FF1FEC5AFE4F80819181882599259183DA
:1023C000808306C02F5F3F4F2E30310571F6B0CFAE
:1023D000109153010E94B3101817D9F00E94B31046
:1023E000809353012A960FB6F894DEBF0FBECDBF7F
:1023F000DF91CF911F910F91FF90EF90DF90CF90E1
:10240000BF90AF909F908F907F906F905F900C9453
:1024100040112A960FB6F894DEBF0FBECDBFDF91F4
:10242000CF911F910F91FF90EF90DF90CF90BF90D1
:10243000AF909F908F907F906F905F900895CF9313
:10244000C82F882309F4C1C0823859F40E94B31000
:1024500081FDBBC089E30E94131C0E94BF1D89E35C
:102460000CC0833879F40E94B31080FDAEC083E5C0
:102470000E94131C0E94BF1D83E50E94E41CCF91A3
:102480000C94BF1D843859F40E94B31082FD9DC086
:1024900087E40E94131C0E94BF1D87E4EECF8CEFDF
:1024A0008C0F813A48F48C2F0E94422581118DC0F7
:1024B0008C2F0E94131CE3CF80E28C0F883048F4ED
:1024C000C77081E001C0880FCA95EAF70E94911D8C
:1024D000D6CF8BE58C0F833078F4C53A29F0C63A15
:1024E00031F482E890E005C081E890E002C083E822
:1024F00090E0CF910C94041188E58C0F833108F0A3
:1025000064C0C83A39F1C93A41F1CA3A49F1CB3A03
:1025100051F1CC3A59F1CD3A61F1C03B69F1CE3A73
:1025200071F1CF3A79F1C13B81F1C23B89F1C33BF3
:1025300091F1C43B99F1C53BA1F1C63BA9F1C73B61
:10254000B1F1C83BB9F1C93BC1F1CA3BC9F58AE257
:1025500092E038C082EE90E035C089EE90E032C063
:102560008AEE90E02FC085EB90E02CC086EB90E0E7
:1025700029C087EB90E026C08CEC90E023C08DEC66
:1025800090E020C083E891E01DC08AE891E01AC085
:1025900082E991E017C084E991E014C081E292E001
:1025A00011C083E292E00EC084E292E00BC085E2AB
:1025B00092E008C086E292E005C087E292E002C0A5
:1025C00080E090E0CF910C941A11CF910895882368
:1025D00009F44BC0823859F40E94B31081FF45C002
:1025E00089E30E94131C0E94BF1D89E30CC083383D
:1025F00071F40E94B31080FF38C083E50E94131C61
:102600000E94BF1D83E50E94E41C0C94BF1D84380A
:1026100059F40E94B31082FF28C087E40E94131C63
:102620000E94BF1D87E4EFCF9CEF980F913A58F3BB
:1026300090E2980F983050F4877091E001C0990FA4
:102640008A95EAF7892F0E94971DDFCF9BE5980FA7
:10265000933020F480E090E00C940411885A833188
:1026600020F480E090E00C941A110895882321F062
:102670000E94911D0C94BF1D0895882321F00E9493
:10268000971D0C94BF1D0895CF92DF92EF92FF9299
:102690000F931F93CF93DF93CDB7DEB728970FB675
:1026A000F894DEBF0FBECDBF8C0185E0F801DE01DE
:1026B000119601900D928A95E1F7F80140813181E0
:1026C000F280258122952F7083819481892B31F0AE
:1026D0003F3F31F481E04F3F19F403C081E001C076
:1026E00080E080FD24C349833A8389819A812F83C6
:1026F0000E94D11B9E8388870E94D01B0E94F81ADB
:102700004E81E42FE295EF70F0E0E05AFF4F2F8109
:1027100068850C94B02A842F807F142F1F70882323
:1027200011F01295107FFF2059F0112309F440C2D7
:10273000812F68870E94A11D0E94BF1D688538C235
:10274000862F0E94E712112309F4F1C2812F0E9403
:10275000A71D28960FB6F894DEBF0FBECDBFDF9140
:10276000CF911F910F91FF90EF90DF90CF900C943D
:10277000BF1D342F307F842F8F70303211F082953F
:10278000807F662319F0613009F12AC0FF20A1F093
:10279000222381F1213071F528960FB6F894DEBF1F
:1027A0000FBECDBFDF91CF911F910F91FF90EF90A2
:1027B000DF90CF900C94B11D222319F0213009F441
:1027C000B6C28E830E94B41D8E8176C1FF2021F097
:1027D000263008F0ACC20EC0253008F0A8C26CC18B
:1027E000FF20C1F0222331F0F801958190FFE0C174
:1027F0009F70958328960FB6F894DEBF0FBECDBFAD
:10280000DF91CF911F910F91FF90EF90DF90CF90CC
:102810000C943613222309F44FC1DEC1242F2695D0
:102820002695237030E02115310521F02130310546
:10283000C9F07DC2FF2021F0862F942F937002C033
:1028400080E090E028960FB6F894DEBF0FBECDBFB3
:10285000DF91CF911F910F91FF90EF90DF90CF907C
:102860000C940411FF2021F0862F942F937002C046
:1028700080E090E028960FB6F894DEBF0FBECDBF83
:10288000DF91CF911F910F91FF90EF90DF90CF904C
:102890000C941A11842F837009F076C0F11047C28E
:1028A000262F229526952770220F220F862F8F70B4
:1028B000C82ED12CE12CF12C022E04C0CC0CDD1C36
:1028C000EE1CFF1C0A94D2F764FF10C06FE070E0AA
:1028D00080E090E004C0660F771F881F991F2A953B
:1028E000D2F7609570958095909503C060E070E098
:1028F000CB01242F269526952370422F50E042309D
:102900005105D1F04330510559F16C297D298E29AB
:102910009F294130510541F128960FB6F894DEBF4A
:102920000FBECDBFDF91CF911F910F91FF90EF9020
:10293000DF90CF900C940D1B6C297D298E299F2947
:1029400028960FB6F894DEBF0FBECDBFDF91CF91B2
:102950001F910F91FF90EF90DF90CF900C941F1B71
:102960000E940D1BC701B60128960FB6F894DEBF72
:102970000FBECDBFDF91CF911F910F91FF90EF90D0
:10298000DF90CF900C94FB1AFF2019F0842F8170F8
:1029900001C08695882309F4CAC1262F2295269561
:1029A0002770220F220F862F8F70C82ED12CE12C7A
:1029B000F12C022E04C0CC0CDD1CEE1CFF1C0A9472
:1029C000D2F764FF10C06FE070E080E090E004C0D8
:1029D000660F771F881F991F2A95D2F7609570950B
:1029E0008095909503C060E070E0CB01242F269580
:1029F00026952370422F50E042305105D1F04330EC
:102A0000510559F16C297D298E299F2941305105A5
:102A100041F128960FB6F894DEBF0FBECDBFDF910F
:102A2000CF911F910F91FF90EF90DF90CF900C947A
:102A3000AC1B6C297D298E299F2928960FB6F89406
:102A4000DEBF0FBECDBFDF91CF911F910F91FF90E1
:102A5000EF90DF90CF900C94BE1B0E94AC1BC7017F
:102A6000B60128960FB6F894DEBF0FBECDBFDF913A
:102A7000CF911F910F91FF90EF90DF90CF900C942A
:102A80009A1B603F49F118F4603E48F48CC0623FE5
:102A900009F451C0E0F1633F09F461C084C0162F0E
:102AA0001F70842F8F71FF2021F00E94451B812F02
:102AB000A1CE0E94601B812F28960FB6F894DEBF2E
:102AC0000FBECDBFDF91CF911F910F91FF90EF907F
:102AD000DF90CF900C943D13FF20A9F0253008F033
:102AE00026C1842F8F7128960FB6F894DEBF0FBED3
:102AF000CDBFDF91CF911F910F91FF90EF90DF90AD
:102B0000CF900C947F1B263008F011C1EACFFF2034
:102B1000A1F0842F8F7128960FB6F894DEBF0FBEF8
:102B2000CDBFDF91CF911F910F91FF90EF90DF907C
:102B3000CF900C94451BFF2061F3842F8F71289652
:102B40000FB6F894DEBF0FBECDBFDF91CF911F91BE
:102B50000F91FF90EF90DF90CF900C94601BFF20BF
:102B600091F0842F8F7128960FB6F894DEBF0FBEB8
:102B7000CDBFDF91CF911F910F91FF90EF90DF902C
:102B8000CF900C94361B28960FB6F894DEBF0FBE7C
:102B9000CDBFDF91CF911F910F91FF90EF90DF900C
:102BA000CF900C94311BFF20A1F0222309F4B1CF68
:102BB000862F28960FB6F894DEBF0FBECDBFDF91EB
:102BC000CF911F910F91FF90EF90DF90CF900C94D9
:102BD0001F12222309F4B1CF862F28960FB6F8943E
:102BE000DEBF0FBECDBFDF91CF911F910F91FF9040
:102BF000EF90DF90CF900C94E7124F70C8010E94C5
:102C0000040728960FB6F894DEBF0FBECDBFDF9144
:102C1000CF911F910F91FF90EF90DF90CF900C9488
:102C2000601AF11084C0662341F0842F8F708430C5
:102C300021F0407F862F8F70482B942F9F70492F53
:102C400050E04230510509F440C0BCF44115510533
:102C500061F14130510509F06AC028960FB6F89429
:102C6000DEBF0FBECDBFDF91CF911F910F91FF90BF
:102C7000EF90DF90CF900C941B2743305105A9F1C2
:102C80004430510509F053C0862F28960FB6F894AA
:102C9000DEBF0FBECDBFDF91CF911F910F91FF908F
:102CA000EF90DF90CF900C94B42728960FB6F8944D
:102CB000DEBF0FBECDBFDF91CF911F910F91FF906F
:102CC000EF90DF90CF900C94F12628960FB6F894F1
:102CD000DEBF0FBECDBFDF91CF911F910F91FF904F
:102CE000EF90DF90CF900C944A2728960FB6F89477
:102CF000DEBF0FBECDBFDF91CF911F910F91FF902F
:102D0000EF90DF90CF900C947C274F70C8012896ED
:102D10000FB6F894DEBF0FBECDBFDF91CF911F91EC
:102D20000F91FF90EF90DF90CF900C9410072896B2
:102D30000FB6F894DEBF0FBECDBFDF91CF911F91CC
:102D40000F91FF90EF90DF90CF9008950E94AE1DFD
:102D50000E94801D0E94BF1D80E090E00E9404112F
:102D600080E090E00C941A110E949E1D0C94A6160F
:102D70000E94D11B292F22952F7030E02C30310575
:102D80004CF42A3031056CF42250310922303105DF
:102D900070F407C02C30310531F02F30310519F0B7
:102DA00006C081E0089593FB882780F9089580E0AC
:102DB0000895CF93DF9300D000D01F92CDB7DEB738
:102DC0000F900F900F900F900F90DF91CF9108957B
:102DD000CF93DF9300D000D000D0CDB7DEB72696DA
:102DE0000FB6F894DEBF0FBECDBFDF91CF9108952F
:102DF000CF93DF93CDB7DEB72B970FB6F894DEBF36
:102E00000FBECDBF4F83588769877A878B87DE01D6
:102E1000119686E0FD0111928A95E9F785E0FE01A1
:102E2000379601900D928A95E1F74F815885698513
:102E30007A858B850E94250949815A816B817C8125
:102E40008D819E810E94B1192B960FB6F894DEBF3A
:102E50000FBECDBFDF91CF9108951F93CF93DF9326
:102E6000C0915E0116E080915F01C81799F0D0E033
:102E70001C9FF0011D9FF00D1124E05AFE4F408170
:102E8000518162817381848195810E94E816219627
:102E9000C770E9CFDF91CF911F91089540919001C4
:102EA00050919101609192017091930180919401F0
:102EB000909195010C94E816CF938091950182959D
:102EC0008F7009F05FC080919201882309F45AC085
:102ED00020915E01A0915F0160919001709191013C
:102EE000809193019091940131E06F3F09F030E0BF
:102EF000B32FC6E02A1709F445C0009721F07F3FA1
:102F000021F44B2F03C041E001C040E030E040FD20
:102F100035C0C29FF001C39FF00D1124E05AFE4F4F
:102F2000418174132BC04081641328C04281411138
:102F300025C0438154814817590710F44150510965
:102F4000481B590B483C5105C8F4809195018F707E
:102F500080618093950186E0829FF001839FF00D50
:102F60001124EB59FE4F80818F708061808380E94E
:102F700091E00E944413CF910C942D172F5F3F4F87
:102F80002770B8CFCF910895CF92DF92EF92FF9242
:102F90000F931F93CF93DF93CDB7DEB762970FB632
:102FA000F894DEBF0FBECDBF8C0185E0F801DE01D5
:102FB0001D9601900D928A95E1F7D8014C911196DA
:102FC0005C91119712966C9112971396ED90FC906C
:102FD000149770919001E0919101209193013091AB
:102FE00094012115310531F0EF3F31F481E07F3F4D
:102FF00019F403C081E001C080E0B82FB170CB2E7E
:1030000080FD6CC1D0909201DD2009F4F5C0F091F3
:103010009501E216F30638F0C701821B930B883C3A
:10302000910548F09BC0209530952E0D3F1D283C02
:10303000310508F093C08F2F807F09F052C0E5134F
:1030400014C0741312C0D62E61110FC0FF70F0614E
:10305000F09395010E944E1780E991E00E9444137D
:1030600080919501F80185836CC1EF2831F05F3FB5
:1030700031F481E04F3F19F403C081E001C080E0EA
:1030800080FD03C081E0862701C080E0F82FF17049
:10309000FF2E80FF1CC080915E0120915F0136E011
:1030A000821709F428C190E0389FF001399FF00D94
:1030B0001124E05AFE4F7181571306C070814713E7
:1030C00003C07281671303C001968770E9CFD62EC3
:1030D000662309F436C18091950181608093950142
:1030E00053C0E51308C0741306C0611104C0D801B1
:1030F0001596FC93AEC04D875E878D859E856A8B45
:103100000E94B8166A89882329F1D62E662311F108
:1031100020919501822F82958F7090E002970CF498
:1031200060C0809190019091910198878F8319865A
:10313000FB86EA862C87CE01079651C0E51731F150
:103140004D875E878D859E856A8B0E94B8166A8939
:1031500081112EC0C8010E944413A4C08F2F807F0C
:1031600069F77E2DF98AE88A89890E94D91680E953
:1031700091E00E944413E0E9F1E086E0DF011D9256
:103180008A95E9F70E944E17D12CDBC07413D8CF73
:103190006111D6CFD8011596FC93C8010E94441343
:1031A000E0E9F1E086E0DF011D928A95E9F7C9C008
:1031B000D62E662379F220919501822F82958F7009
:1031C00090E0029774F080919001909191019A8320
:1031D00089831B82FD82EC822E83CE0101960E94A0
:1031E000441386E0F801A0E9B1E001900D928A95C0
:1031F000E1F70E945C176FC0E216F30628F0C701E2
:10320000821B930B9C0104C0209530952E0D3F1D11
:10321000283C310508F052C0D62E662309F49ACF17
:10322000E5132CC074132AC08091950180FD1DC048
:10323000982F92959F70C9F0D80115968C93159789
:103240009F3039F09F5F9295907F8F70892B1596F4
:103250008C93C8010E94441386E0F801A0E9B1E014
:1032600001900D928A95E1F736C086E0F801A0E959
:10327000B1E001900D928A95E1F763C04D875E87BA
:103280008D859E850E94B816882379F086E0F80126
:10329000A0E9B1E001900D928A95E1F70E945C17D8
:1032A0000E944E17DD24D3944CC08091950181601B
:1032B00080939501C8010E94441343C07E2DF98A72
:1032C000E88A89890E94D916E0E9F1E086E0DF0109
:1032D0001D928A95E9F70E944E1733C0662309F4C0
:1032E00039CF4D875E878D859E850E94B8168823CD
:1032F00009F430CFCBCF4D875E878D859E850E94A8
:10330000D11B292F22952F7030E0223031052CF46B
:103310009F7041F0811106C00CC0243031052CF49F
:103320009F7049F4805E883020F0C8010E944413E9
:10333000CF2CDC2C06C0D80115969C91907F91F77C
:10334000F8CF8D2D62960FB6F894DEBF0FBECDBFBD
:10335000DF91CF911F910F91FF90EF90DF90CF9071
:1033600008951F93CF93DF93CDB7DEB72C970FB699
:10337000F894DEBF0FBECDBF4F83588769877A8729
:103380008B879C87CE0107960E94C4178823D1F0B3
:103390002F8138858A859B85892B31F03F3F31F419
:1033A00081E02F3F19F403C081E001C080E080FD7F
:1033B00047C04F81588569857A858B859C850E9499
:1033C000E8163EC086E0FE013796DE0111960190B8
:1033D0000D928A95E1F7FF81E8854A855B85411565
:1033E000510531F0EF3F31F481E0FF3F19F403C0A4
:1033F00081E001C080E080FD23C020915F0130E0CA
:10340000C90101968770992760915E0170E0861767
:103410009707F1F1F983EA835D834C8396E0929FED
:10342000D001939FB00D1124A05ABE4FFE013196DA
:1034300001900D929A95E1F780935F010E942D17FC
:1034400016E080915E0190915F01891779F1189FD4
:10345000C0011124805A9E4F0E94C417882331F165
:10346000E0915E011E9FF0011124E05AFE4F408161
:10347000518162817381848195810E94E8168091D7
:103480005E0190E001968770992780935E01D9CF05
:103490000E94B41610925F0110925E01E0E9F1E023
:1034A00086E0DF011D928A95E9F7CACF2C960FB608
:1034B000F894DEBF0FBECDBFDF91CF911F9108956D
:1034C000EF92FF920F931F93CF93DF939C0100978E
:1034D00009F46FC0F12CEE24E394E9012196F9017F
:1034E0008491843740F4843008F054C0813081F0F6
:1034F000823021F15EC0853709F447C0B0F19CE706
:10350000980F903708F055C08F770E94E71244C09B
:1035100089010E5F1F4FFE01849190E2980F983051
:1035200050F48770FE2D01C0FF0F8A95EAF78F2FA8
:103530000E94A11D15C00E941F1212C089010E5FBA
:103540001F4FFE01849190E2980F983058F48770D5
:10355000FE2D01C0FF0F8A95EAF78F2F0E94A71D4D
:10356000E8011AC00E94E712FBCF2E5F3F4FFE0119
:10357000C491CC2341F08FE99FE00197F1F700C09F
:103580000000C150F6CFE90107C0FE01F490E90147
:10359000229602C00E941F128F2D882341F0EFE96E
:1035A000FFE03197F1F700C000008150F6CF9E0197
:1035B00094CFDF91CF911F910F91FF90EF900895DD
:1035C00060939A0170939B0180939C0190939D015D
:1035D0000E94B1280C94A6166093960170939701EF
:1035E00080939801909399010E94F5280C94A61657
:1035F00008950C94E01A0F931F9300919A01109173
:103600009B0120919C0130919D01602B712B822B9D
:10361000932B1F910F910C94E01A0F931F9300911D
:103620009A0110919B0120919C0130919D01602392
:103630007123822393231F910F910C94E01A0F930F
:103640001F9300919A0110919B0120919C01309150
:103650009D0160277127822793271F910F910C945A
:10366000E01A60E070E0CB010C94EC1A41E050E00D
:1036700060E070E004C0440F551F661F771F8A95F5
:10368000D2F7CB01BA010C94EC1A41E050E060E0B3
:1036900070E004C0440F551F661F771F8A95D2F74C
:1036A0008091960190919701A0919801B091990114
:1036B000482B592B6A2B7B2BCB01BA010C94EC1AAB
:1036C00041E050E060E070E004C0440F551F661F09
:1036D000771F8A95D2F740955095609570958091A7
:1036E000960190919701A0919801B091990148237A
:1036F00059236A237B23CB01BA010C94EC1A41E0D5
:1037000050E060E070E004C0440F551F661F771F53
:103710008A95D2F78091960190919701A091980196
:10372000B0919901482759276A277B27CB01BA0115
:103730000C94EC1A0F931F9300919601109197012E
:103740002091980130919901602B712B822B932B42
:103750001F910F910C94EC1A0F931F9300919601F7
:103760001091970120919801309199016023712364
:10377000822393231F910F910C94EC1A0F931F93A4
:103780000091960110919701209198013091990133
:1037900060277127822793271F910F910C94EC1AB1
:1037A0000895CF92DF92EF92FF920F931F93CF93E2
:1037B000DF93EC01C0909A01D0909B01E0909C01B6
:1037C000F0909D018091960190919701A0919801B0
:1037D000B0919901C82AD92AEA2AFB2A0FE110E000
:1037E000B701A601002E04C07695679557954795B9
:1037F0000A94D2F740FF07C0BE01802F0E94871EA7
:103800008130910539F40150110950F7BE0180E073
:103810000E94871EDF91CF911F910F91FF90EF9033
:10382000DF90CF900895CF92DF92EF92FF920F93A7
:103830001F93CF93DF93F82E80910C01882349F1D9
:103840008F2D8695869586958F3090F4E0910D01A9
:10385000F0910E01E80FF11D8F2D877021E030E00F
:1038600001C0220F8A95EAF78181822B8183A3C050
:103870008091B40180FF9FC01F92FF9281E394E08A
:103880009F938F930E94F3060F900F900F900F90CD
:1038900092C0E090B1014091AF01E0910D01F09133
:1038A0000E01442309F472C02091B0018E2D3FEF28
:1038B00006E010E0A82FBB27A7FDB095EF01CA0FC7
:1038C000DB1F9A819F1509F476C03F3F19F49111CF
:1038D00001C0382FCD010196C6E0D0E0B8010E94AA
:1038E0009C2A8213E7CF2E1151C03F3F71F4822FE3
:1038F000992787FD90950196BE010E949C2A80938E
:10390000B10141504093AF0141C0832F992787FDFA
:1039100090950196BE010E949C2AEE24E394C6E095
:10392000D0E0082F112707FD10956F01C00ED11EA2
:10393000D60112966C916623A1F0432F552747FDBF
:103940005095CF01840F951FDC0112966C93D60120
:1039500012961C92CA010196BE010E949C2A382F21
:1039600001C0E394C8010196BE010E949C2A821303
:10397000D8CF822F992787FD90958E1991090696A9
:1039800066E070E00E949C2A8093B0012091B00113
:10399000332727FD3095E20FF31FF282C90101960C
:1039A00066E070E00E949C2A8093B0018091AF0194
:1039B0008F5F8093AF01DF91CF911F910F91FF90A7
:1039C000EF90DF90CF900895DF92EF92FF920F93E8
:1039D0001F93CF93DF93482F80910C01882351F1DF
:1039E000842F8695869586958F3098F4E0910D0109
:1039F000F0910E01E80FF11D477021E030E0042E38
:103A000001C0220F0A94EAF720958181282321839F
:103A10006FC08091B40180FF6BC01F924F9383E110
:103A200094E09F938F930E94F3060F900F900F9056
:103A30000F905EC0E091B101D090AF01DD2009F49C
:103A400057C0C0910D01D0910E010091B001112716
:103A500007FD109586E0E82EF12CF0E0DE01AE0FB8
:103A6000BF1F9D012E5F3F4F12968C91841336C06D
:103A7000D9011C92DA94D092AF01D11004C01092F7
:103A8000B1011092B0012091B001822F992787FDDA
:103A90009095059666E070E00E949C2AE817F90769
:103AA00039F54091B101E6E0F0E0822F992787FDDA
:103AB00090950596BF010E949C2A9C010596BF0126
:103AC0000E949C2A8C0F9D1FDC0112968C91811103
:103AD00002C02413EACF2093B0010AC0CF0101969F
:103AE000B7010E949C2AE82F8017910709F0B5CFF3
:103AF000DF91CF911F910F91FF90EF90DF9008958C
:103B000081E090E0E0910D01F0910E01E80FF91FC6
:103B10001082019680319105A9F708958091B30133
:103B200008959091B301982B9093B30108958095D7
:103B30009091B30198239093B30108951092B3012B
:103B400008959091B201982B9093B20108958095B9
:103B50009091B20198239093B20108951092B2010E
:103B6000089580939E01089510929E01089580917A
:103B70000C01811103C08091AF0108950895E09177
:103B80000D01F0910E018091B3018083E0910D0150
:103B9000F0910E0180819091B201892B80839091E8
:103BA0009E01992361F0E0910D01F0910E01808159
:103BB000892B80830E94B71D811110929E018091F4
:103BC0000D0190910E010C94BF108B3B60F4883A6C
:103BD00000F5853AA8F4843088F4813009F055C0A6
:103BE00081E090E00895803E08F44FC0883E30F0B8
:103BF000803F08F44AC090E09065089590E00895F1
:103C0000853A09F445C0863A09F045C082E890E457
:103C10000895883A09F442C0893A09F442C08A3AC0
:103C200009F442C08B3A09F442C08C3A09F442C00C
:103C30008D3A09F442C0803B09F442C08E3A09F43F
:103C400042C08F3A09F442C0813B09F442C0823B32
:103C500009F442C0833B09F442C0843B09F442C0EA
:103C6000853B09F442C0863B09F442C0873B09F416
:103C700042C0883B09F442C0893B09F442C08A3BF8
:103C800009F042C08AE296E4089580E090E0089549
:103C900081E890E4089583E890E4089582EE94E446
:103CA000089589EE94E408958AEE94E4089585EBEE
:103CB00094E4089586EB94E4089587EB94E40895E2
:103CC0008CEC94E408958DEC94E4089583E895E4F5
:103CD00008958AE895E4089582E995E4089584E9D1
:103CE00095E4089581E296E4089583E296E40895C8
:103CF00084E296E4089585E296E4089586E296E4E7
:103D0000089587E296E4089580E094E408950E947F
:103D10002B07803EA8F4803C00F5813309F45CC099
:103D200038F4893209F452C08A3209F45BC05FC0AA
:103D30008933B1F08238A1F0853309F441C057C00E
:103D4000833E41F128F4803E99F0823EB9F04FC0A5
:103D5000863E31F1873E71F14AC00E942F070895D7
:103D60009091D90190FD02C091FF41C080EE3FC00B
:103D70008091D90180FFFACF89E339C08091D901C0
:103D800082FF0CC08091D90184FF02C080E02FC067
:103D900083EE2DC08091D90182FFF4CF82EE27C03F
:103DA0008091D90183FF0AC08091D90184FDEECFB3
:103DB00087EE1DC08091D90183FFF6CF86EE17C034
:103DC0008091D90185FF06C089E211C08091D90197
:103DD00085FFFACF85E30BC08091D90186FF06C02D
:103DE0008AE205C08091D90186FFFACF81E30E9463
:103DF000E51D08959093B6018093B5010895CF9283
:103E0000DF92EF92FF920F931F936C01EE24FF2439
:103E1000C114D104E104F10421F46B017C0180E0C0
:103E200001C080E133272F2D1E2D0D2D0115110509
:103E30002105310519F0885F680179019701860134
:103E400054E036952795179507955A95D1F70115A2
:103E500011052105310519F08C5F68017901970181
:103E6000860142E036952795179507954A95D1F733
:103E7000011511052105310519F08E5F68017901E1
:103E8000B701A6017695679557954795452B462B23
:103E9000472B09F08F5F1F910F91FF90EF90DF90FC
:103EA000CF9008958295982F9C7C969596958373D4
:103EB00044E0849F90011124922B892F8A7A869561
:103EC0009575990F892B08951F93CF93DF931F92B8
:103ED000CDB7DEB799830E94521F182F9981892F81
:103EE0000E94521F212F30E0322F2227A901482B98
:103EF000CA010F90DF91CF911F9108959091DE013B
:103F0000943029F183FF02C090E601C090E48770ED
:103F1000892B28E130E00FB6F894A8952093600033
:103F20000FBE8093600083B7817F846083BF83B7B7
:103F3000816083BF7894889583B78E7F83BF88E143
:103F40000FB6F89480936000109260000FBE089541
:103F5000CF930E94FC060E9472070E94FD06C0E0FB
:103F60008C2F0E948C08892B29F4CF5FC530C1F7B4
:103F700080E001C081E0CF9108950E94B4160C94B6
:103F8000E0261F920F920FB60F9211240F900FBED2
:103F90000F901F90189582E084BD93E095BD9AEF35
:103FA00097BD80936E0008952FB7F8948091B70164
:103FB0009091B801A091B901B091BA012FBF0895B5
:103FC0001F920F920FB60F9211248F939F93AF936E
:103FD000BF938091B7019091B801A091B901B091C0
:103FE000BA010196A11DB11D8093B7019093B8014C
:103FF000A093B901B093BA01BF91AF919F918F91F6
:104000000F900FBE0F901F9018950E94D40CF8943B
:104010002FEF87EA91E6215080409040E1F700C001
:10402000000087E090EBDC018093E8019093E901C8
:10403000A093EA01B093EB012CE088E190E00FB689
:10404000F894A895809360000FBE20936000FFCF86
:10405000CF92DF92EF92FF920F931F93CF93DF9354
:10406000C82ED12C01E010E08D2D0E948C087C011F
:10407000C0E0D0E098010C2E02C0220F331F0A943A
:10408000E2F72E213F21232B29F42196CE30D105B2
:1040900089F709C06C2F7D2D80E00E942B07C81284
:1040A000F4CF81E005C0D39485E0D812DDCF80E065
:1040B000DF91CF911F910F91FF90EF90DF90CF9004
:1040C0000895CF93C82F8CE20E942820882321F0E6
:1040D0008C2FCF910C94282080E0CF910895CF931E
:1040E0000E94CE21811102C00E94A92186E594E0A0
:1040F0000E945A06C5E6C15049F00E9472078FE33C
:104100009CE90197F1F700C00000F5CF8FE494E03F
:104110000E945A0689E20E946120811118C18AE238
:104120000E946120882341F00E94C8210E94A92199
:104130000E94202A0E94892985E00E946120811125
:104140000E9405200E94D9218093B40187E00E943B
:104150006120882399F18BE10E946120882351F02E
:104160009091B40191FB882780F921E0822780FBA0
:1041700091F922C08EE00E946120882351F0909135
:10418000B40192FB882780F921E0822780FB92F915
:1041900013C080E10E9461209091B401882341F016
:1041A00093FB882780F921E0822780FB93F904C0E4
:1041B000892F809580FB90F99093B4018091B40190
:1041C0000E94DD210E94EB218093D90180EE0E94A4
:1041D0006120882341F08091D901982F909590FB20
:1041E00080F98093D90189E30E946120882359F0E6
:1041F0009091D90191FB882780F921E0822780FBEB
:1042000091F99093D90182EE0E946120882359F0A0
:104210009091D90192FB882780F921E0822780FBC9
:1042200092F99093D90186EE0E946120882359F07B
:104230009091D90193FB882780F921E0822780FBA8
:1042400093F99093D90183EE0E946120882359F05D
:104250009091D90194FB882780F921E0822780FB87
:1042600094F99093D90185E30E946120882359F045
:104270009091D90195FB882780F921E0822780FB66
:1042800095F99093D90181E30E946120882359F028
:104290009091D90196FB882780F921E0822780FB45
:1042A00096F99093D90181E10E946120882359F009
:1042B0009091D90197FB882780F921E0822780FB24
:1042C00097F99093D9018091D9010E94EF218091B3
:1042D000D90187FB882780F980930C0187E20E942F
:1042E0006120C82F8EE10E9461208111C2608FE1A0
:1042F0000E9461208111C46080E20E9461208111CE
:10430000C86081E20E9461208111C06182E20E9446
:1043100061208111C06283E20E9461208111C0642A
:1043200084E20E946120882311F0C06802C0CC237F
:1043300029F08C2F0E94E6216C2F03C00E94E221FD
:10434000682F70E080E090E0CF910C94F91ACF9143
:1043500008956DEE7EEF80E090E00E94E62A60E036
:1043600082E090E00E94D82A60E083E090E00E9422
:10437000D82A60E084E090E00E94D82A60E085E0DE
:1043800090E00E94D82A60E086E090E00C94D82A61
:104390006FEF7FEF80E090E00C94E62A80E090E001
:1043A0000E94D22A21E08D3E9E4F09F020E0822F0C
:1043B000089582E090E00C94CA2A682F82E090E091
:1043C0000C94D82A83E090E00C94CA2A682F83E0EA
:1043D00090E00C94D82A84E090E00C94CA2A682FCC
:1043E00084E090E00C94D82A86E090E00C94CA2AED
:1043F000682F86E090E00C94D82ACF93C82F82E9EA
:1044000094E00E945A0660919A0170919B018091FC
:104410009C0190919D010E94FF1E1F928F932FE897
:1044200034E03F932F930E94F3068AE894E00E94C1
:104430005A061F92CF9327E834E03F932F930E94B0
:10444000F30685E894E00E945A0661E070E080E09F
:1044500090E004C0660F771F881F991FCA95D2F796
:104460000E94F91A8DB79EB708960FB6F8949EBFB2
:104470000FBE8DBFCF910C94B416CF93482F50E050
:10448000FA013697E334F10508F0F0C2E059FF4F26
:104490000C94B02A8AE29BE00E945A068EE198E0D2
:1044A0000E945A060E94E2211F928F938BE198E0AE
:1044B0009F938F930E94F30689E198E00E945A0629
:1044C0000E94D921C82F86E098E00E945A061F92C8
:1044D000CF9321E038E03F932F930E94F3068FEFB4
:1044E00097E00E945A0685EF97E00E945A068C2FAB
:1044F00081701F928F9322EF37E03F932F930E949A
:10450000F30680EF97E00E945A0686EE97E00E943D
:104510005A06C1FB882780F91F928F9323EE37E05C
:104520003F932F930E94F30681EE97E00E945A0674
:1045300085ED97E00E945A06C2FB882780F91F92FA
:104540008F9322ED37E03F932F930E94F30680ED87
:1045500097E00E945A0687EC97E00E945A06C3FB38
:10456000CC27C0F91F92CF9384EC97E09F938F9351
:104570000E94F30682EC97E00E945A060E94EB210B
:10458000C82F8EEA97E00E945A061F92CF9329EA1D
:1045900037E03F932F930E94F30687EA97E00E944B
:1045A0005A068EE897E00E945A068C2F81701F925F
:1045B0008F932BE837E03F932F930E94F3068DB73C
:1045C0009EB780960FB6F8949EBF0FBE8DBF89E848
:1045D00097E00E945A0682E797E00E945A06C1FBC4
:1045E000882780F91F928F932FE637E03F932F9310
:1045F0000E94F3068DE697E00E945A068BE597E04D
:104600000E945A06C2FB882780F91F928F9328E5E3
:1046100037E03F932F930E94F30686E597E00E94D0
:104620005A0684E497E00E945A06C3FB882780F963
:104630001F928F9321E437E03F932F930E94F3065C
:104640008FE397E00E945A0685E397E00E945A069E
:10465000C4FB882780F91F928F9322E337E03F93B2
:104660002F930E94F30680E397E00E945A068EE1A2
:1046700097E00E945A06C5FB882780F91F928F9306
:104680002BE137E03F932F930E94F30689E197E0F7
:104690000E945A068DEF96E00E945A06C6FB8827B4
:1046A00080F91F928F932AEF36E03F932F930E9459
:1046B000F30688EF96E00E945A0680EF96E00E948B
:1046C0005A06C7FBCC27C0F91F92CF938DEE96E018
:1046D0009F938F930E94F3068BEE96E00E945A06FA
:1046E0000E94F421C82F84ED96E00E945A061F9282
:1046F000CF932FEC36E03F932F930E94F3068DB7B4
:104700009EB780960FB6F8949EBF0FBE8DBF8DECFE
:1047100096E00E945A0683EC96E00E945A068C2F7F
:1047200081701F928F9320EC36E03F932F930E946D
:10473000F3068EEB96E00E945A0685EB96E00E9407
:104740005A06C6951F92CF9382EB96E09F938F9364
:104750000E94F30680EB96E00E945A068DB79EB742
:1047600008960FB6F8949EBF0FBE8DBF1BC00E9467
:10477000AE10892B69F00E94AE109093BD0180931A
:10478000BC0180E090E00E94A91081E29BE008C09B
:104790008091BC019091BD010E94A91086E19BE02F
:1047A0000E945A06C1E067C184E996E00E945A0659
:1047B0008DE796E00E945A0685E696E00E945A062A
:1047C0008DE496E00E945A0683E396E00E945A0622
:1047D0008CE196E00E945A068CEF95E00E945A0602
:1047E00086EE95E00E945A0685ED95E00E945A06F5
:1047F0008DEB95E00E945A068DEA95E00E945A06DC
:1048000083E995E00E945A068AE795E00E945A06DD
:1048100081E695E00E945A0688E495E00E945A06D7
:104820008FE295E00E945A068EE095E00E945A06BB
:104830008CEE94E00E945A0682ED94E0B1CF809114
:10484000B401817F8E7F8093B40186EB94E00E9457
:104850005A0689EA94E00E945A0681E09BE00E9491
:104860005A068DEF9AE00E945A0681E08093BB01C0
:1048700099CF0E94B41684EE9AE00E945A069FEFE8
:1048800023ED80E3915020408040E1F700C000001C
:104890000E94052084ED9AE083CF8091B401C82F57
:1048A000C17080FF09C081EC9AE00E945A06809195
:1048B000B401817F8E7F44C08FEA9AE00E945A063D
:1048C0008091B40181608093B4016CCF8091B40178
:1048D00081FBCC27C0F991E0C927C0FB81F9809307
:1048E000B401CC2319F086E99AE025C08CE79AE060
:1048F00057CF8091B40182FBCC27C0F991E0C92742
:10490000C0FB82F98093B401CC2319F081E69AE0D0
:1049100012C085E49AE044CF8091B40183FBCC2798
:10492000C0F991E0C927C0FB83F98093B401CC237F
:1049300051F08DE29AE00E945A068091B4018160A4
:104940008093B40198C084E19AE02ACF8DEF99E07A
:104950000E945A0683ED99E00E945A068DE999E07B
:104960000E945A0686E799E00E945A0688EE98E06F
:104970000E945A068DEB98E013CF8091B701909179
:10498000B801A091B901B091BA01BF93AF939F93C1
:104990008F9389EA98E09F938F930E94F3060F907C
:1049A0000F900F900F900F900F90FCCE83E998E03E
:1049B0000E945A060E94B3101F928F9389E798E0D5
:1049C0009F938F930E94F30680910B011F928F9308
:1049D00082E698E09F938F930E94F30680913A01BC
:1049E0001F928F938FE498E09F938F930E94F3061A
:1049F0008DB79EB70C960FB6F8949EBF0FBE8DBFB5
:104A0000D1CE0E94B416C0910C0181E0C827C0939A
:104A10000C01CC2329F080E498E00E945A062BC0B8
:104A200080E398E0BDCE81E890E00E9404119FEF02
:104A300021EE84E0915020408040E1F700C000006A
:104A400080E090E00E9404119FEF29E688E19150F8
:104A500020408040E1F700C00000A4CE80E003C009
:104A60008D5101C089530E94FD219CCE8EE298E0B9
:104A70000E945A06C0E08C2FCF91089580E00895DF
:104A800080E00895CF93C82F8091BB01882319F04F
:104A9000813049F043C0E0910D01F0910E01808119
:104AA0008232F1F507C0E0910D01F0910E01808195
:104AB000823249F48C2F0E943E2581112CC08C2F0C
:104AC0000E943D2229C08C2F0E944025811123C0C5
:104AD000C431A9F018F4CB3029F018C0C93279F0EC
:104AE000C833A1F486EB94E00E945A0689EA94E068
:104AF0000E945A0681E894E00E945A060CC08DE696
:104B000094E00E945A061092BB010CC08BE694E020
:104B10000E945A0607C081E0817006C01092BB0156
:104B200080E002C080E0F8CFCF910895E1E8F0E0A6
:104B30008081886080838081816080838FB7F894D2
:104B400093E09093890090ED909388008FBF0C9430
:104B50003929EFE6F0E080818260808381E08093F4
:104B6000CE010C945429EFE6F0E080818D7F8083A4
:104B70001092CE0180E00E94472981E00E944729DF
:104B80008091CE010C945429E82FF0E0E653FE4FBB
:104B900060830895E82FF0E0E653FE4F4081242F14
:104BA00030E08FEF90E0861B9109821793071CF489
:104BB0008FEF80830895640F60830895CF93C82F8B
:104BC000682F80E00E94CA256C2F81E0CF910C9461
:104BD000CA25E82FF0E0E653FE4F8081861710F4D7
:104BE00010820895861B80830895CF93C82F682F65
:104BF00080E00E94E9256C2F81E0CF910C94E9259B
:104C00008091CE0108958091C90183608093C9018C
:104C100008951092C90108958093C8010895809362
:104C2000C70108958091C60183608093C6010895ED
:104C30001092C60108958093C50108951F920F92A6
:104C40000FB60F9211240F931F932F933F934F93FF
:104C50005F936F937F938F939F93AF93BF93CF9304
:104C6000DF93EF93FF938091C4018F5F8093C40122
:104C700081110DC00E943A298091CA018093CC0114
:104C800081E00E943A298091CB018093CD019091DF
:104C9000C4018091CC01981303C080E00E94472991
:104CA0009091C4018091CD01981303C081E00E94CE
:104CB00047290091C901011105C03091C601311188
:104CC00033C069C08091C3018F5F813418F4809331
:104CD000C301F3CF1092C3018091C2018F5F809313
:104CE000C2019091C701981740F71092C201C0E02D
:104CF000D0E010E0C8010C2E02C0969587950A946A
:104D0000E2F780FF0CC08091C80161E0882321F0A8
:104D10008C2F0E94E92503C08C2F0E94CA25219662
:104D2000C230D10551F2E6CF8091C1018F5F81344D
:104D300018F48093C1012FC01092C1018091C0016D
:104D40008F5F8093C0019091C501981720F5109254
:104D5000C0012091BF01E22FF0E0EB5CF44FE49141
:104D6000832F30FDE093CA0181FDE093CB01809158
:104D7000BE01882339F0211103C01092BE010BC07F
:104D8000215007C02F3721F481E08093BE0103C07A
:104D90002F5F2093BF01FF91EF91DF91CF91BF91E2
:104DA000AF919F918F917F916F915F914F913F91C3
:104DB0002F911F910F910F900FBE0F901F9018957C
:104DC0000E94CE21811102C00E94A9210E94F421DB
:104DD0008093E70180FF02C0869501C080E00C94BB
:104DE000DC088091E701982F9695292F30E0283034
:104DF00031054CF49F5F990F8170892B81608093FE
:104E0000E7010E94F8218091B40180FF0FC08091DA
:104E1000E70186951F928F9387EF9BE09F938F9377
:104E20000E94F3060F900F900F900F908091E70172
:104E300086950C94DC088091E701982F969591F067
:104E40009158990F8170892B8093E7018E7F91E0B3
:104E500009F490E08091E70190FB80F98093E701ED
:104E60000E94F8218091B40180FF0FC08091E7017A
:104E700086951F928F938FED9BE09F938F930E9457
:104E8000F3060F900F900F900F908091E701869599
:104E90000C94DC088091E701982F9095917090FB1D
:104EA00080F98093E701992339F0982F9E7F21F4B0
:104EB000817082608093E7018091E7010E94F82170
:104EC0008091B40180FF0FC08091E70181701F9233
:104ED0008F9389EC9BE09F938F930E94F3060F9032
:104EE0000F900F900F908091E70180FF02C0869590
:104EF00001C080E00C94DC083091E701232F269557
:104F00002F5F2F77822F90E0317009972CF4220FBA
:104F1000232B2093E70102C03093E7018091E70142
:104F20008E7F91E009F490E08091E70190FB80F999
:104F30008093E7010E94F8218091B40180FF0FC0A7
:104F40008091E70186951F928F9385EB9BE09F935D
:104F50008F930E94F3060F900F900F900F90809107
:104F6000E70186950C94DC08880F9091E701917019
:104F7000982B9093E7019E7F21E009F420E0809137
:104F8000E70120FB80F98093E7010E94F8218091DE
:104F9000E70186950C94DC08DF92EF92FF920F9365
:104FA0001F93CF93DF93F82EE62E0091D4010827AC
:104FB000611101C0B1F1C0E0D0E010E0DC2E0E9430
:104FC0000026882359F02091D00130E00C2E02C039
:104FD000369527950A94E2F720FD1DC0E11009C01F
:104FE00098010C2E02C0369527950A94E2F720FF0F
:104FF00012C02091CF012F2530E00C2E02C0369533
:1050000027950A94E2F78D2D20FF03C00E945F09C7
:1050100002C00E9468092196C230D10579F6F0924B
:10502000D401DF91CF911F910F91FF90EF90DF900E
:1050300008950F931F93CF93DF93C0E0D0E001E07A
:1050400010E08C2F0E94992994FF0BC08091CF0112
:1050500098010C2E01C0220F0A94EAF7822B80934C
:10506000CF0195FF0BC08091D00198010C2E01C09B
:10507000220F0A94EAF7822B8093D0019F70892F28
:1050800090E08230910589F083309105D1F0813034
:10509000910511F50C2E01C0880F0A94EAF7909142
:1050A000D201982B9093D20117C02091D101C80151
:1050B0000C2E01C0880F0A94EAF7282B2093D10107
:1050C0000BC02091D301C8010C2E01C0880F0A9497
:1050D000EAF7282B2093D3012196C230D10509F09D
:1050E000B0CF0E945A0961E080E0DF91CF911F911B
:1050F0000F910C94CC27CF93DF93D82F8091D301BD
:10510000882361F1C091D40180FF0FC080E00E942C
:1051100099294D2F50E002C0559547958A95E2F7A1
:1051200040FD02C0CE7F01C0C1608091D30181FFEC
:105130000FC081E00E9499292D2F30E002C03595E3
:1051400027958A95E2F720FD02C0CD7F01C0C2609D
:1051500060E08C2FDF91CF910C94CC27DF91CF9121
:105160000895CF92DF92EF92FF92CF936B017C0173
:105170008091D201882399F1C091D40180FF11C0A0
:1051800080E00E949929A701960104C05695479591
:10519000379527958A95D2F720FD02C0CE7F01C0B2
:1051A000C1608091D20181FF11C081E00E949929E4
:1051B000A701960104C056954795379527958A957E
:1051C000D2F720FD02C0CD7F01C0C26060E08C2F0D
:1051D000CF91FF90EF90DF90CF900C94CC27CF91A0
:1051E000FF90EF90DF90CF900895CF92DF92EF92F3
:1051F000FF92CF936B017C018091D101882399F1BB
:10520000C091D40180FF11C080E00E949929A701BC
:10521000960104C056954795379527958A95D2F7FC
:1052200020FD02C0CE7F01C0C1608091D10181FF0D
:1052300011C081E00E949929A701960104C05695EA
:105240004795379527958A95D2F720FD02C0CD7FE7
:1052500001C0C26060E08C2FCF91FF90EF90DF9093
:10526000CF900C94CC27CF91FF90EF90DF90CF9010
:10527000089508952091D00130E0082E02C036959F
:1052800027950A94E2F720FD0C945F090895209178
:10529000D00130E0082E02C0369527950A94E2F737
:1052A00020FD0C9468090895811105C061E080918A
:1052B000D4010C94CC27089587E090E00E94D22A74
:1052C0009093D6018093D501019661F480E00E940D
:1052D00051099093D6018093D501BC0187E090E0FD
:1052E0000E94E62A89E090E00E94D22A9093D80199
:1052F0008093D701019661F481E00E945109909357
:10530000D8018093D701BC0189E090E00C94E62A93
:10531000089580E00E945109BC0187E090E00E945E
:10532000E62A81E00E945109BC0189E090E00C94DA
:10533000E62AE82FF0E0EE0FFF1FEB52FE4F8081D0
:1053400091810895DF92EF92FF920F931F93CF9375
:10535000DF9381E190E00E94D22A7C01C0E0D0E09E
:105360000DEE1EEF0E944207D82E0E944407D89EE1
:10537000C001112423E0880F991F2A95E1F79C01B1
:10538000205C3F4FC217D30770F4CE0143960E94B2
:10539000CA2A282F30E0C0FF02C0322F2227020F76
:1053A000131F2196DFCF81E0E016F10609F080E0BF
:1053B000DF91CF911F910F91FF90EF90DF900895B3
:1053C00090E0880F991F43960C94D22A90E0880FA2
:1053D000991F43960C94E62AEF92FF920F931F9326
:1053E000CF93DF9300D0CDB7DEB7082F4A83698310
:1053F0000E944207089F800111240E944407809F59
:105400007001819FF00C11240E944407698197016B
:10541000689F200D311D1124C9014A81840F911DFF
:105420008D5A9F4F0F900F90DF91CF911F910F9149
:10543000FF90EF900C94CA2A8D5A9F4F0C94D82A53
:105440008F929F92AF92BF92CF92DF92EF92FF9294
:105450000F931F93CF93DF930E9436077C010E9426
:1054600033075C01E114F104F1F00E9401074C01E3
:10547000C0E0D0E00DEE1EEFC815D90520F4F7010D
:10548000C590D49002C0C12CD12CB6018C2F0E94A3
:10549000E6290C0D1D1D219682E0E80EF11CC0329C
:1054A000D10551F702C00DEE1EEFA114B10461F158
:1054B0000E94FE067C01C0E0D0E00E944207D82E88
:1054C0000E944407D89EC001112423E0880F991F31
:1054D0002A95E1F7C817D907B8F4CE15DF0528F4E7
:1054E000F501EC0FFD1FD49001C0D12C6D2DCE0124
:1054F0000E941C2A6D2D70E0C0FF02C0762F662727
:10550000060F171F2196D9CFB80181E190E0DF91F6
:10551000CF911F910F91FF90EF90DF90CF90BF90B0
:10552000AF909F908F900C94E62A0E94A22981113F
:1055300002C00C94202A089597FB072E16F40094BD
:1055400007D077FD09D00E94B62A07FC05D03EF4AB
:10555000909581959F4F0895709561957F4F08951F
:10556000EE0FFF1F0590F491E02D0994AA1BBB1BC1
:1055700051E107C0AA1FBB1FA617B70710F0A61B53
:10558000B70B881F991F5A95A9F780959095BC0174
:10559000CD010895F999FECF92BD81BDF89A992762
:1055A00080B50895A8E1B0E042E050E00C94ED2A07
:1055B000262FF999FECF1FBA92BD81BD20BD0FB62F
:1055C000F894FA9AF99A0FBE019608950E94D82A83
:1055D000272F0C94D92ADC01CB01FC01F999FECFCD
:1055E00006C0F2BDE1BDF89A319600B40D9241506B
:0A55F0005040B8F70895F894FFCF7B
:1055FA000571093D0A74090A0AD60901019F013F8A
:10560A00362039A0036A034A0311039D02B602CF6A
:04561A0002EF020099
:00000001FF
